{
  "_format": "hh-sol-artifact-1",
  "contractName": "Distributor",
  "sourceName": "contracts/Distributor.sol",
  "abi": [
    {
      "inputs": [
        {
          "internalType": "contract Mix",
          "name": "_mixToken",
          "type": "address"
        },
        {
          "internalType": "contract Mixie",
          "name": "_mixieToken",
          "type": "address"
        },
        {
          "internalType": "string",
          "name": "uri",
          "type": "string"
        }
      ],
      "stateMutability": "nonpayable",
      "type": "constructor"
    },
    {
      "inputs": [],
      "name": "getNFT",
      "outputs": [],
      "stateMutability": "nonpayable",
      "type": "function"
    },
    {
      "inputs": [],
      "name": "getRequiredMix",
      "outputs": [
        {
          "internalType": "uint256",
          "name": "",
          "type": "uint256"
        }
      ],
      "stateMutability": "view",
      "type": "function"
    }
  ],
  "bytecode": "0x6080604052690a968163f0a57b40000060025534801561001e57600080fd5b506040516109ce3803806109ce8339818101604052606081101561004157600080fd5b8151602083015160408085018051915193959294830192918464010000000082111561006c57600080fd5b90830190602082018581111561008157600080fd5b825164010000000081118282018810171561009b57600080fd5b82525081516020918201929091019080838360005b838110156100c85781810151838201526020016100b0565b50505050905090810190601f1680156100f55780820380516001836020036101000a031916815260200191505b506040525050600080546001600160a01b038087166001600160a01b031992831617909255600180549286169290911691909117905550805161013f906003906020840190610148565b505050506101db565b828054600181600116156101000203166002900490600052602060002090601f016020900481019282601f1061018957805160ff19168380011785556101b6565b828001600101855582156101b6579182015b828111156101b657825182559160200191906001019061019b565b506101c29291506101c6565b5090565b5b808211156101c257600081556001016101c7565b6107e4806101ea6000396000f3fe608060405234801561001057600080fd5b50600436106100365760003560e01c806346738cbe1461003b57806388a6360e14610055575b600080fd5b61004361005f565b60408051918252519081900360200190f35b61005d610065565b005b60025490565b60015460408051632b0c491b60e11b815290516000926001600160a01b0316916356189236916004808301926020929190829003018186803b1580156100aa57600080fd5b505afa1580156100be573d6000803e3d6000fd5b505050506040513d60208110156100d457600080fd5b50519050610514811115610120576040805162461bcd60e51b815260206004820152600e60248201526d105b1c9958591e48119a5b1b195960921b604482015290519081900360640190fd5b6002546000546001600160a01b03166370a0823161013c61051a565b6040518263ffffffff1660e01b815260040180826001600160a01b0316815260200191505060206040518083038186803b15801561017957600080fd5b505afa15801561018d573d6000803e3d6000fd5b505050506040513d60208110156101a357600080fd5b505110156101e9576040805162461bcd60e51b815260206004820152600e60248201526d09cdee840cadcdeeaced0409ad2f60931b604482015290519081900360640190fd5b6000546001600160a01b03166379cc679061020261051a565b6002546040518363ffffffff1660e01b815260040180836001600160a01b0316815260200182815260200192505050600060405180830381600087803b15801561024b57600080fd5b505af115801561025f573d6000803e3d6000fd5b50506001546001600160a01b0316915063cf378343905061027e61051a565b60036102898561051e565b60405160200180838054600181600116156101000203166002900480156102e75780601f106102c55761010080835404028352918201916102e7565b820191906000526020600020905b8154815290600101906020018083116102d3575b5050825160208401908083835b602083106103135780518252601f1990920191602091820191016102f4565b6001836020036101000a038019825116818451168082178552505050505050905001925050506040516020818303038152906040526040518363ffffffff1660e01b815260040180836001600160a01b0316815260200180602001828103825283818151815260200191508051906020019080838360005b838110156103a357818101518382015260200161038b565b50505050905090810190601f1680156103d05780820380516001836020036101000a031916815260200191505b509350505050602060405180830381600087803b1580156103f057600080fd5b505af1158015610404573d6000803e3d6000fd5b505050506040513d602081101561041a57600080fd5b506104ef9050600361042b8361051e565b60405160200180838054600181600116156101000203166002900480156104895780601f10610467576101008083540402835291820191610489565b820191906000526020600020905b815481529060010190602001808311610475575b5050825160208401908083835b602083106104b55780518252601f199092019160209182019101610496565b6001836020036101000a038019825116818451168082178552505050505050905001925050506040516020818303038152906040526105fa565b610514620186a061050e620173356002546106a390919063ffffffff16565b90610705565b60025550565b3390565b60608161054357506040805180820190915260018152600360fc1b60208201526105f5565b818060005b821561055c57600101600a83049250610548565b60608167ffffffffffffffff8111801561057557600080fd5b506040519080825280601f01601f1916602001820160405280156105a0576020820181803683370190505b50905060001982015b83156105ee57600a840660300160f81b828280600190039350815181106105cc57fe5b60200101906001600160f81b031916908160001a905350600a840493506105a9565b5093505050505b919050565b6106a0816040516024018080602001828103825283818151815260200191508051906020019080838360005b8381101561063e578181015183820152602001610626565b50505050905090810190601f16801561066b5780820380516001836020036101000a031916815260200191505b5060408051601f198184030181529190526020810180516001600160e01b031663104c13eb60e21b179052925061076c915050565b50565b6000826106b2575060006106ff565b828202828482816106bf57fe5b04146106fc5760405162461bcd60e51b815260040180806020018281038252602181526020018061078e6021913960400191505060405180910390fd5b90505b92915050565b600080821161075b576040805162461bcd60e51b815260206004820152601a60248201527f536166654d6174683a206469766973696f6e206279207a65726f000000000000604482015290519081900360640190fd5b81838161076457fe5b049392505050565b80516a636f6e736f6c652e6c6f67602083016000808483855afa505050505056fe536166654d6174683a206d756c7469706c69636174696f6e206f766572666c6f77a2646970667358221220718e07896ed3c6afa851e09048f5b679f122509d582904558c447e223ff69baf64736f6c63430007030033",
  "linkReferences": {},
  "deployedLinkReferences": {},
  "address": [
    "",
    "0x7F402310F70E72d4Af77cabd1197a390dF7588bD",
    "0x36A55BE39839345a76d4a13604089B0D2e16168A",
    ""
  ]
}