{
  "_format": "hh-sol-artifact-1",
  "contractName": "Mixie",
  "sourceName": "contracts/Mixie.sol",
  "abi": [
    {
      "inputs": [
        {
          "internalType": "string",
          "name": "_tokenName",
          "type": "string"
        },
        {
          "internalType": "string",
          "name": "_tokenSymbol",
          "type": "string"
        },
        {
          "internalType": "contract MixieAccessControl",
          "name": "_accessControl",
          "type": "address"
        }
      ],
      "stateMutability": "nonpayable",
      "type": "constructor"
    },
    {
      "anonymous": false,
      "inputs": [
        {
          "indexed": true,
          "internalType": "address",
          "name": "owner",
          "type": "address"
        },
        {
          "indexed": true,
          "internalType": "address",
          "name": "approved",
          "type": "address"
        },
        {
          "indexed": true,
          "internalType": "uint256",
          "name": "tokenId",
          "type": "uint256"
        }
      ],
      "name": "Approval",
      "type": "event"
    },
    {
      "anonymous": false,
      "inputs": [
        {
          "indexed": true,
          "internalType": "address",
          "name": "owner",
          "type": "address"
        },
        {
          "indexed": true,
          "internalType": "address",
          "name": "operator",
          "type": "address"
        },
        {
          "indexed": false,
          "internalType": "bool",
          "name": "approved",
          "type": "bool"
        }
      ],
      "name": "ApprovalForAll",
      "type": "event"
    },
    {
      "anonymous": false,
      "inputs": [
        {
          "indexed": true,
          "internalType": "address",
          "name": "from",
          "type": "address"
        },
        {
          "indexed": true,
          "internalType": "address",
          "name": "to",
          "type": "address"
        },
        {
          "indexed": true,
          "internalType": "uint256",
          "name": "tokenId",
          "type": "uint256"
        }
      ],
      "name": "Transfer",
      "type": "event"
    },
    {
      "inputs": [
        {
          "internalType": "address",
          "name": "to",
          "type": "address"
        },
        {
          "internalType": "uint256",
          "name": "tokenId",
          "type": "uint256"
        }
      ],
      "name": "approve",
      "outputs": [],
      "stateMutability": "nonpayable",
      "type": "function"
    },
    {
      "inputs": [
        {
          "internalType": "address",
          "name": "player",
          "type": "address"
        },
        {
          "internalType": "string",
          "name": "_tokenURI",
          "type": "string"
        }
      ],
      "name": "awardItem",
      "outputs": [
        {
          "internalType": "uint256",
          "name": "",
          "type": "uint256"
        }
      ],
      "stateMutability": "nonpayable",
      "type": "function"
    },
    {
      "inputs": [
        {
          "internalType": "address",
          "name": "owner",
          "type": "address"
        }
      ],
      "name": "balanceOf",
      "outputs": [
        {
          "internalType": "uint256",
          "name": "",
          "type": "uint256"
        }
      ],
      "stateMutability": "view",
      "type": "function"
    },
    {
      "inputs": [],
      "name": "baseURI",
      "outputs": [
        {
          "internalType": "string",
          "name": "",
          "type": "string"
        }
      ],
      "stateMutability": "view",
      "type": "function"
    },
    {
      "inputs": [
        {
          "internalType": "uint256",
          "name": "tokenId",
          "type": "uint256"
        }
      ],
      "name": "getApproved",
      "outputs": [
        {
          "internalType": "address",
          "name": "",
          "type": "address"
        }
      ],
      "stateMutability": "view",
      "type": "function"
    },
    {
      "inputs": [],
      "name": "getCurrentTokenId",
      "outputs": [
        {
          "internalType": "uint256",
          "name": "",
          "type": "uint256"
        }
      ],
      "stateMutability": "view",
      "type": "function"
    },
    {
      "inputs": [
        {
          "internalType": "address",
          "name": "owner",
          "type": "address"
        },
        {
          "internalType": "address",
          "name": "operator",
          "type": "address"
        }
      ],
      "name": "isApprovedForAll",
      "outputs": [
        {
          "internalType": "bool",
          "name": "",
          "type": "bool"
        }
      ],
      "stateMutability": "view",
      "type": "function"
    },
    {
      "inputs": [],
      "name": "name",
      "outputs": [
        {
          "internalType": "string",
          "name": "",
          "type": "string"
        }
      ],
      "stateMutability": "view",
      "type": "function"
    },
    {
      "inputs": [
        {
          "internalType": "uint256",
          "name": "tokenId",
          "type": "uint256"
        }
      ],
      "name": "ownerOf",
      "outputs": [
        {
          "internalType": "address",
          "name": "",
          "type": "address"
        }
      ],
      "stateMutability": "view",
      "type": "function"
    },
    {
      "inputs": [
        {
          "internalType": "address",
          "name": "from",
          "type": "address"
        },
        {
          "internalType": "address",
          "name": "to",
          "type": "address"
        },
        {
          "internalType": "uint256",
          "name": "tokenId",
          "type": "uint256"
        }
      ],
      "name": "safeTransferFrom",
      "outputs": [],
      "stateMutability": "nonpayable",
      "type": "function"
    },
    {
      "inputs": [
        {
          "internalType": "address",
          "name": "from",
          "type": "address"
        },
        {
          "internalType": "address",
          "name": "to",
          "type": "address"
        },
        {
          "internalType": "uint256",
          "name": "tokenId",
          "type": "uint256"
        },
        {
          "internalType": "bytes",
          "name": "_data",
          "type": "bytes"
        }
      ],
      "name": "safeTransferFrom",
      "outputs": [],
      "stateMutability": "nonpayable",
      "type": "function"
    },
    {
      "inputs": [
        {
          "internalType": "address",
          "name": "operator",
          "type": "address"
        },
        {
          "internalType": "bool",
          "name": "approved",
          "type": "bool"
        }
      ],
      "name": "setApprovalForAll",
      "outputs": [],
      "stateMutability": "nonpayable",
      "type": "function"
    },
    {
      "inputs": [
        {
          "internalType": "bytes4",
          "name": "interfaceId",
          "type": "bytes4"
        }
      ],
      "name": "supportsInterface",
      "outputs": [
        {
          "internalType": "bool",
          "name": "",
          "type": "bool"
        }
      ],
      "stateMutability": "view",
      "type": "function"
    },
    {
      "inputs": [],
      "name": "symbol",
      "outputs": [
        {
          "internalType": "string",
          "name": "",
          "type": "string"
        }
      ],
      "stateMutability": "view",
      "type": "function"
    },
    {
      "inputs": [
        {
          "internalType": "uint256",
          "name": "index",
          "type": "uint256"
        }
      ],
      "name": "tokenByIndex",
      "outputs": [
        {
          "internalType": "uint256",
          "name": "",
          "type": "uint256"
        }
      ],
      "stateMutability": "view",
      "type": "function"
    },
    {
      "inputs": [
        {
          "internalType": "address",
          "name": "owner",
          "type": "address"
        },
        {
          "internalType": "uint256",
          "name": "index",
          "type": "uint256"
        }
      ],
      "name": "tokenOfOwnerByIndex",
      "outputs": [
        {
          "internalType": "uint256",
          "name": "",
          "type": "uint256"
        }
      ],
      "stateMutability": "view",
      "type": "function"
    },
    {
      "inputs": [
        {
          "internalType": "uint256",
          "name": "tokenId",
          "type": "uint256"
        }
      ],
      "name": "tokenURI",
      "outputs": [
        {
          "internalType": "string",
          "name": "",
          "type": "string"
        }
      ],
      "stateMutability": "view",
      "type": "function"
    },
    {
      "inputs": [],
      "name": "totalSupply",
      "outputs": [
        {
          "internalType": "uint256",
          "name": "",
          "type": "uint256"
        }
      ],
      "stateMutability": "view",
      "type": "function"
    },
    {
      "inputs": [
        {
          "internalType": "address",
          "name": "from",
          "type": "address"
        },
        {
          "internalType": "address",
          "name": "to",
          "type": "address"
        },
        {
          "internalType": "uint256",
          "name": "tokenId",
          "type": "uint256"
        }
      ],
      "name": "transferFrom",
      "outputs": [],
      "stateMutability": "nonpayable",
      "type": "function"
    }
  ],
  "bytecode": "0x60a06040526104b06080819052600a553480156200001c57600080fd5b506040516200221838038062002218833981810160405260608110156200004257600080fd5b81019080805160405193929190846401000000008211156200006357600080fd5b9083019060208201858111156200007957600080fd5b82516401000000008111828201881017156200009457600080fd5b82525081516020918201929091019080838360005b83811015620000c3578181015183820152602001620000a9565b50505050905090810190601f168015620000f15780820380516001836020036101000a031916815260200191505b50604052602001805160405193929190846401000000008211156200011557600080fd5b9083019060208201858111156200012b57600080fd5b82516401000000008111828201881017156200014657600080fd5b82525081516020918201929091019080838360005b83811015620001755781810151838201526020016200015b565b50505050905090810190601f168015620001a35780820380516001836020036101000a031916815260200191505b5060405260200151915083905082620001c36301ffc9a760e01b62000250565b8151620001d8906006906020850190620002d5565b508051620001ee906007906020840190620002d5565b50620002016380ac58cd60e01b62000250565b62000213635b5e139f60e01b62000250565b6200022563780e9d6360e01b62000250565b5050600b80546001600160a01b0319166001600160a01b039290921691909117905550620003719050565b6001600160e01b03198082161415620002b0576040805162461bcd60e51b815260206004820152601c60248201527f4552433136353a20696e76616c696420696e7465726661636520696400000000604482015290519081900360640190fd5b6001600160e01b0319166000908152602081905260409020805460ff19166001179055565b828054600181600116156101000203166002900490600052602060002090601f016020900481019282601f106200031857805160ff191683800117855562000348565b8280016001018555821562000348579182015b82811115620003485782518255916020019190600101906200032b565b50620003569291506200035a565b5090565b5b808211156200035657600081556001016200035b565b611e9780620003816000396000f3fe608060405234801561001057600080fd5b50600436106101215760003560e01c806356189236116100ad578063a22cb46511610071578063a22cb4651461036f578063b88d4fde1461039d578063c87b56dd14610463578063cf37834314610480578063e985e9c51461053657610121565b806356189236146103145780636352211e1461031c5780636c0360eb1461033957806370a082311461034157806395d89b411461036757610121565b806318160ddd116100f457806318160ddd1461024557806323b872dd1461025f5780632f745c591461029557806342842e0e146102c15780634f6ccce7146102f757610121565b806301ffc9a71461012657806306fdde0314610161578063081812fc146101de578063095ea7b314610217575b600080fd5b61014d6004803603602081101561013c57600080fd5b50356001600160e01b031916610564565b604080519115158252519081900360200190f35b610169610587565b6040805160208082528351818301528351919283929083019185019080838360005b838110156101a357818101518382015260200161018b565b50505050905090810190601f1680156101d05780820380516001836020036101000a031916815260200191505b509250505060405180910390f35b6101fb600480360360208110156101f457600080fd5b503561061d565b604080516001600160a01b039092168252519081900360200190f35b6102436004803603604081101561022d57600080fd5b506001600160a01b03813516906020013561067f565b005b61024d61075a565b60408051918252519081900360200190f35b6102436004803603606081101561027557600080fd5b506001600160a01b0381358116916020810135909116906040013561076b565b61024d600480360360408110156102ab57600080fd5b506001600160a01b0381351690602001356107c2565b610243600480360360608110156102d757600080fd5b506001600160a01b038135811691602081013590911690604001356107ed565b61024d6004803603602081101561030d57600080fd5b5035610808565b61024d61081e565b6101fb6004803603602081101561033257600080fd5b503561082a565b610169610852565b61024d6004803603602081101561035757600080fd5b50356001600160a01b03166108b3565b61016961091b565b6102436004803603604081101561038557600080fd5b506001600160a01b038135169060200135151561097c565b610243600480360360808110156103b357600080fd5b6001600160a01b038235811692602081013590911691604082013591908101906080810160608201356401000000008111156103ee57600080fd5b82018360208201111561040057600080fd5b8035906020019184600183028401116401000000008311171561042257600080fd5b91908080601f016020809104026020016040519081016040528093929190818152602001838380828437600092019190915250929550610a81945050505050565b6101696004803603602081101561047957600080fd5b5035610adf565b61024d6004803603604081101561049657600080fd5b6001600160a01b0382351691908101906040810160208201356401000000008111156104c157600080fd5b8201836020820111156104d357600080fd5b803590602001918460018302840111640100000000831117156104f557600080fd5b91908080601f016020809104026020016040519081016040528093929190818152602001838380828437600092019190915250929550610d62945050505050565b61014d6004803603604081101561054c57600080fd5b506001600160a01b0381358116916020013516610e52565b6001600160e01b0319811660009081526020819052604090205460ff165b919050565b60068054604080516020601f60026000196101006001881615020190951694909404938401819004810282018101909252828152606093909290918301828280156106135780601f106105e857610100808354040283529160200191610613565b820191906000526020600020905b8154815290600101906020018083116105f657829003601f168201915b5050505050905090565b600061062882610e80565b6106635760405162461bcd60e51b815260040180806020018281038252602c815260200180611d60602c913960400191505060405180910390fd5b506000908152600460205260409020546001600160a01b031690565b600061068a8261082a565b9050806001600160a01b0316836001600160a01b031614156106dd5760405162461bcd60e51b8152600401808060200182810382526021815260200180611e106021913960400191505060405180910390fd5b806001600160a01b03166106ef610e8d565b6001600160a01b0316148061071057506107108161070b610e8d565b610e52565b61074b5760405162461bcd60e51b8152600401808060200182810382526038815260200180611cb36038913960400191505060405180910390fd5b6107558383610e91565b505050565b60006107666002610eff565b905090565b61077c610776610e8d565b82610f0a565b6107b75760405162461bcd60e51b8152600401808060200182810382526031815260200180611e316031913960400191505060405180910390fd5b610755838383610fae565b6001600160a01b03821660009081526001602052604081206107e490836110fa565b90505b92915050565b61075583838360405180602001604052806000815250610a81565b600080610816600284611106565b509392505050565b6000610766600a611122565b60006107e782604051806060016040528060298152602001611d156029913960029190611126565b60098054604080516020601f60026000196101006001881615020190951694909404938401819004810282018101909252828152606093909290918301828280156106135780601f106105e857610100808354040283529160200191610613565b60006001600160a01b0382166108fa5760405162461bcd60e51b815260040180806020018281038252602a815260200180611ceb602a913960400191505060405180910390fd5b6001600160a01b03821660009081526001602052604090206107e790610eff565b60078054604080516020601f60026000196101006001881615020190951694909404938401819004810282018101909252828152606093909290918301828280156106135780601f106105e857610100808354040283529160200191610613565b610984610e8d565b6001600160a01b0316826001600160a01b031614156109ea576040805162461bcd60e51b815260206004820152601960248201527f4552433732313a20617070726f766520746f2063616c6c657200000000000000604482015290519081900360640190fd5b80600560006109f7610e8d565b6001600160a01b03908116825260208083019390935260409182016000908120918716808252919093529120805460ff191692151592909217909155610a3b610e8d565b6001600160a01b03167f17307eab39ab6107e8899845ad3d59bd9653f200f220920489ca2b5937696c318360405180821515815260200191505060405180910390a35050565b610a92610a8c610e8d565b83610f0a565b610acd5760405162461bcd60e51b8152600401808060200182810382526031815260200180611e316031913960400191505060405180910390fd5b610ad98484848461113d565b50505050565b6060610aea82610e80565b610b255760405162461bcd60e51b815260040180806020018281038252602f815260200180611de1602f913960400191505060405180910390fd5b60008281526008602090815260409182902080548351601f6002600019610100600186161502019093169290920491820184900484028101840190945280845260609392830182828015610bba5780601f10610b8f57610100808354040283529160200191610bba565b820191906000526020600020905b815481529060010190602001808311610b9d57829003601f168201915b505050505090506060610bcb610852565b9050805160001415610bdf57509050610582565b815115610ca05780826040516020018083805190602001908083835b60208310610c1a5780518252601f199092019160209182019101610bfb565b51815160209384036101000a600019018019909216911617905285519190930192850191508083835b60208310610c625780518252601f199092019160209182019101610c43565b6001836020036101000a0380198251168184511680821785525050505050509050019250505060405160208183030381529060405292505050610582565b80610caa8561118f565b6040516020018083805190602001908083835b60208310610cdc5780518252601f199092019160209182019101610cbd565b51815160209384036101000a600019018019909216911617905285519190930192850191508083835b60208310610d245780518252601f199092019160209182019101610d05565b6001836020036101000a0380198251168184511680821785525050505050509050019250505060405160208183030381529060405292505050919050565b600b546000906001600160a01b031663099db017610d7e610e8d565b6040518263ffffffff1660e01b815260040180826001600160a01b0316815260200191505060206040518083038186803b158015610dbb57600080fd5b505afa158015610dcf573d6000803e3d6000fd5b505050506040513d6020811015610de557600080fd5b5051610e26576040805162461bcd60e51b815260206004820152600b60248201526a4e6f74204d696e7465722160a81b604482015290519081900360640190fd5b6000610e32600a611122565b9050610e3e600a61126a565b610e488482611273565b6107e48184611291565b6001600160a01b03918216600090815260056020908152604080832093909416825291909152205460ff1690565b60006107e76002836112f4565b3390565b600081815260046020526040902080546001600160a01b0319166001600160a01b0384169081179091558190610ec68261082a565b6001600160a01b03167f8c5be1e5ebec7d5bd14f71427d1e84f3dd0314c0f7b2291e5b200ac8c7c3b92560405160405180910390a45050565b60006107e782611122565b6000610f1582610e80565b610f505760405162461bcd60e51b815260040180806020018281038252602c815260200180611c87602c913960400191505060405180910390fd5b6000610f5b8361082a565b9050806001600160a01b0316846001600160a01b03161480610f965750836001600160a01b0316610f8b8461061d565b6001600160a01b0316145b80610fa65750610fa68185610e52565b949350505050565b826001600160a01b0316610fc18261082a565b6001600160a01b0316146110065760405162461bcd60e51b8152600401808060200182810382526029815260200180611db86029913960400191505060405180910390fd5b6001600160a01b03821661104b5760405162461bcd60e51b8152600401808060200182810382526024815260200180611c3d6024913960400191505060405180910390fd5b611056838383610755565b611061600082610e91565b6001600160a01b03831660009081526001602052604090206110839082611300565b506001600160a01b03821660009081526001602052604090206110a6908261130c565b506110b360028284611318565b5080826001600160a01b0316846001600160a01b03167fddf252ad1be2c89b69c2b068fc378daa952ba7f163c4a11628f55a4df523b3ef60405160405180910390a4505050565b60006107e4838361132e565b60008080806111158686611392565b9097909650945050505050565b5490565b600061113384848461140d565b90505b9392505050565b611148848484610fae565b611154848484846114d7565b610ad95760405162461bcd60e51b8152600401808060200182810382526032815260200180611c0b6032913960400191505060405180910390fd5b6060816111b457506040805180820190915260018152600360fc1b6020820152610582565b8160005b81156111cc57600101600a820491506111b8565b60608167ffffffffffffffff811180156111e557600080fd5b506040519080825280601f01601f191660200182016040528015611210576020820181803683370190505b50859350905060001982015b831561126157600a840660300160f81b8282806001900393508151811061123f57fe5b60200101906001600160f81b031916908160001a905350600a8404935061121c565b50949350505050565b80546001019055565b61128d82826040518060200160405280600081525061163f565b5050565b61129a82610e80565b6112d55760405162461bcd60e51b815260040180806020018281038252602c815260200180611d8c602c913960400191505060405180910390fd5b6000828152600860209081526040909120825161075592840190611b55565b60006107e48383611691565b60006107e483836116a9565b60006107e4838361176f565b600061113384846001600160a01b0385166117b9565b815460009082106113705760405162461bcd60e51b8152600401808060200182810382526022815260200180611be96022913960400191505060405180910390fd5b82600001828154811061137f57fe5b9060005260206000200154905092915050565b8154600090819083106113d65760405162461bcd60e51b8152600401808060200182810382526022815260200180611d3e6022913960400191505060405180910390fd5b60008460000184815481106113e757fe5b906000526020600020906002020190508060000154816001015492509250509250929050565b600082815260018401602052604081205482816114a85760405162461bcd60e51b81526004018080602001828103825283818151815260200191508051906020019080838360005b8381101561146d578181015183820152602001611455565b50505050905090810190601f16801561149a5780820380516001836020036101000a031916815260200191505b509250505060405180910390fd5b508460000160018203815481106114bb57fe5b9060005260206000209060020201600101549150509392505050565b60006114eb846001600160a01b0316611850565b6114f757506001610fa6565b6060611605630a85bd0160e11b61150c610e8d565b88878760405160240180856001600160a01b03168152602001846001600160a01b0316815260200183815260200180602001828103825283818151815260200191508051906020019080838360005b8381101561157357818101518382015260200161155b565b50505050905090810190601f1680156115a05780820380516001836020036101000a031916815260200191505b5095505050505050604051602081830303815290604052906001600160e01b0319166020820180516001600160e01b038381831617835250505050604051806060016040528060328152602001611c0b603291396001600160a01b0388169190611856565b9050600081806020019051602081101561161e57600080fd5b50516001600160e01b031916630a85bd0160e11b1492505050949350505050565b6116498383611865565b61165660008484846114d7565b6107555760405162461bcd60e51b8152600401808060200182810382526032815260200180611c0b6032913960400191505060405180910390fd5b60009081526001919091016020526040902054151590565b6000818152600183016020526040812054801561176557835460001980830191908101906000908790839081106116dc57fe5b90600052602060002001549050808760000184815481106116f957fe5b60009182526020808320909101929092558281526001898101909252604090209084019055865487908061172957fe5b600190038181906000526020600020016000905590558660010160008781526020019081526020016000206000905560019450505050506107e7565b60009150506107e7565b600061177b8383611691565b6117b1575081546001818101845560008481526020808220909301849055845484825282860190935260409020919091556107e7565b5060006107e7565b60008281526001840160205260408120548061181e575050604080518082018252838152602080820184815286546001818101895560008981528481209551600290930290950191825591519082015586548684528188019092529290912055611136565b8285600001600183038154811061183157fe5b9060005260206000209060020201600101819055506000915050611136565b3b151590565b60606111338484600085611993565b6001600160a01b0382166118c0576040805162461bcd60e51b815260206004820181905260248201527f4552433732313a206d696e7420746f20746865207a65726f2061646472657373604482015290519081900360640190fd5b6118c981610e80565b1561191b576040805162461bcd60e51b815260206004820152601c60248201527f4552433732313a20746f6b656e20616c7265616479206d696e74656400000000604482015290519081900360640190fd5b61192760008383610755565b6001600160a01b0382166000908152600160205260409020611949908261130c565b5061195660028284611318565b5060405181906001600160a01b038416906000907fddf252ad1be2c89b69c2b068fc378daa952ba7f163c4a11628f55a4df523b3ef908290a45050565b6060824710156119d45760405162461bcd60e51b8152600401808060200182810382526026815260200180611c616026913960400191505060405180910390fd5b6119dd85611850565b611a2e576040805162461bcd60e51b815260206004820152601d60248201527f416464726573733a2063616c6c20746f206e6f6e2d636f6e7472616374000000604482015290519081900360640190fd5b60006060866001600160a01b031685876040518082805190602001908083835b60208310611a6d5780518252601f199092019160209182019101611a4e565b6001836020036101000a03801982511681845116808217855250505050505090500191505060006040518083038185875af1925050503d8060008114611acf576040519150601f19603f3d011682016040523d82523d6000602084013e611ad4565b606091505b5091509150611ae4828286611aef565b979650505050505050565b60608315611afe575081611136565b825115611b0e5782518084602001fd5b60405162461bcd60e51b815260206004820181815284516024840152845185939192839260440191908501908083836000831561146d578181015183820152602001611455565b828054600181600116156101000203166002900490600052602060002090601f016020900481019282601f10611b9657805160ff1916838001178555611bc3565b82800160010185558215611bc3579182015b82811115611bc3578251825591602001919060010190611ba8565b50611bcf929150611bd3565b5090565b5b80821115611bcf5760008155600101611bd456fe456e756d657261626c655365743a20696e646578206f7574206f6620626f756e64734552433732313a207472616e7366657220746f206e6f6e20455243373231526563656976657220696d706c656d656e7465724552433732313a207472616e7366657220746f20746865207a65726f2061646472657373416464726573733a20696e73756666696369656e742062616c616e636520666f722063616c6c4552433732313a206f70657261746f7220717565727920666f72206e6f6e6578697374656e7420746f6b656e4552433732313a20617070726f76652063616c6c6572206973206e6f74206f776e6572206e6f7220617070726f76656420666f7220616c6c4552433732313a2062616c616e636520717565727920666f7220746865207a65726f20616464726573734552433732313a206f776e657220717565727920666f72206e6f6e6578697374656e7420746f6b656e456e756d657261626c654d61703a20696e646578206f7574206f6620626f756e64734552433732313a20617070726f76656420717565727920666f72206e6f6e6578697374656e7420746f6b656e4552433732314d657461646174613a2055524920736574206f66206e6f6e6578697374656e7420746f6b656e4552433732313a207472616e73666572206f6620746f6b656e2074686174206973206e6f74206f776e4552433732314d657461646174613a2055524920717565727920666f72206e6f6e6578697374656e7420746f6b656e4552433732313a20617070726f76616c20746f2063757272656e74206f776e65724552433732313a207472616e736665722063616c6c6572206973206e6f74206f776e6572206e6f7220617070726f766564a26469706673582212201ab1e76118a442fa79fae28da14816488b911f2bf8df4a3078c98cf71995f4e264736f6c63430007030033",
  "linkReferences": {},
  "deployedLinkReferences": {},
  "address": [
    "",
    "0x13e7E602ec024051c47dB08326e01448eCF98288",
    "0xD0b91D8580A0B3E8677e75fa23eFccB4D64B4E00",
    ""
  ]
}